:020000040800F2
:1000000000800020CD0100081D0200081D0200082C
:1000100000000000000000000000000000000000E0
:100020000000000000000000000000001D020008A9
:1000300000000000000000001D0200081D02000872
:100040001D0200081D0200081D0200081D02000814
:100050001D0200081D0200081D0200081D02000804
:10006000000000001D0200081D0200081D0200081B
:100070001D0200081D0200081D020008000000000B
:100080001D0200081D020008000000001D020008FB
:100090001D0200081D0200081D0200081D020008C4
:1000A0001D0200081D0200081D0200081D020008B4
:1000B0001D0200081D020008000000001D020008CB
:1000C00010B5064C2378002B07D1054B002B02D02E
:1000D000044800E000BF0123237010BD0000002091
:1000E0000000000068020008044B10B5002B03D08C
:1000F0000349044800E000BF10BDC04600000000F6
:10010000040000206802000880B582B000AF002320
:100110007B6002E07B6801337B607B68034A93422B
:10012000F8DDC046C046BD4602B080BD3F420F006C
:1001300080B500AF234B1A6B224B01210A431A638F
:10014000214B1A68204B10210A431A601E4B1A6873
:100150001D4B40210A431A601B4B1A681A4B802121
:1001600049000A431A60184B5A69174B04210A4385
:100170005A61FFF7C9FF144B5B69134B00225A61A8
:10018000114B5A69104B08210A435A61FFF7BCFF13
:100190000D4B5B690C4B00225A610B4B5A690A4BA1
:1001A00010210A435A61FFF7AFFF074B5B69064B0B
:1001B00000225A61044B5A69034B04210A435A61D5
:1001C000C046D6E700380240000002400D48854690
:1001D00000E000BF0C480D490D4A002302E0D4584E
:1001E000C4500433C4188C42F9D30A4A0A4C002381
:1001F00001E013600432A242FBD300F011F8FFF7D4
:1002000097FFFEE700800020000000200000002093
:1002100088020008000000201C000020FEE700000B
:1002200070B500260C4C0D4D641BA410A64209D1DC
:10023000002600F019F80A4C0A4D641BA410A642CF
:1002400005D170BDB300EB5898470136EEE7B30017
:10025000EB5898470136F2E7800200088002000858
:100260008402000880020008F8B5C046F8BC08BC4B
:100270009E467047F8B5C046F8BC08BC9E4670471D
:04028000E900000889
:04028400C1000008AD
:04000005080001CD21
:00000001FF
